{
  "contractName": "Addition",
  "abi": [
    {
      "constant": true,
      "inputs": [],
      "name": "num",
      "outputs": [
        {
          "name": "",
          "type": "uint256"
        }
      ],
      "payable": false,
      "stateMutability": "view",
      "type": "function"
    },
    {
      "constant": false,
      "inputs": [
        {
          "name": "initialNum",
          "type": "uint256"
        }
      ],
      "name": "getNumber",
      "outputs": [],
      "payable": false,
      "stateMutability": "nonpayable",
      "type": "function"
    }
  ],
  "bytecode": "0x608060405234801561001057600080fd5b5060dc8061001f6000396000f3006080604052600436106049576000357c0100000000000000000000000000000000000000000000000000000000900463ffffffff1680634e70b1dc14604e578063fc563658146076575b600080fd5b348015605957600080fd5b50606060a0565b6040518082815260200191505060405180910390f35b348015608157600080fd5b50609e6004803603810190808035906020019092919050505060a6565b005b60005481565b80600081905550505600a165627a7a7230582081faa9031cd53e3dc40b63a2480dbc1ea0d4348aa77412714690daed5410ae6b0029",
  "source": "pragma solidity^0.4.2;\n\ncontract Addition{\n    uint public num;\n    function getNumber(uint initialNum) public {\n        num = initialNum;\n    }\n}\n\n\n\n",
  "sourcePath": "/Users/namanmanchanda/Desktop/jquery/contracts/Addition.sol",
  "compiler": {
    "name": "solc",
    "version": "0.4.24+commit.e67f0147.Emscripten.clang"
  },
  "schemaVersion": "2.0.1",
  "updatedAt": "2018-10-25T19:43:16.645Z"
}